{
  "address": "0xDC3D8318Fbaec2de49281843f5bba22e78338146",
  "abi": [
    {
      "inputs": [
        {
          "internalType": "address",
          "name": "admin",
          "type": "address"
        },
        {
          "internalType": "address",
          "name": "operator",
          "type": "address"
        }
      ],
      "stateMutability": "nonpayable",
      "type": "constructor"
    },
    {
      "inputs": [],
      "name": "AccessControlBadConfirmation",
      "type": "error"
    },
    {
      "inputs": [
        {
          "internalType": "address",
          "name": "account",
          "type": "address"
        },
        {
          "internalType": "bytes32",
          "name": "neededRole",
          "type": "bytes32"
        }
      ],
      "name": "AccessControlUnauthorizedAccount",
      "type": "error"
    },
    {
      "inputs": [],
      "name": "ECDSAInvalidSignature",
      "type": "error"
    },
    {
      "inputs": [
        {
          "internalType": "uint256",
          "name": "length",
          "type": "uint256"
        }
      ],
      "name": "ECDSAInvalidSignatureLength",
      "type": "error"
    },
    {
      "inputs": [
        {
          "internalType": "bytes32",
          "name": "s",
          "type": "bytes32"
        }
      ],
      "name": "ECDSAInvalidSignatureS",
      "type": "error"
    },
    {
      "inputs": [],
      "name": "InvalidShortString",
      "type": "error"
    },
    {
      "inputs": [],
      "name": "ReentrancyGuardReentrantCall",
      "type": "error"
    },
    {
      "inputs": [
        {
          "internalType": "string",
          "name": "str",
          "type": "string"
        }
      ],
      "name": "StringTooLong",
      "type": "error"
    },
    {
      "anonymous": false,
      "inputs": [
        {
          "indexed": true,
          "internalType": "address",
          "name": "recipient",
          "type": "address"
        },
        {
          "indexed": true,
          "internalType": "uint256",
          "name": "amount",
          "type": "uint256"
        }
      ],
      "name": "Claimed",
      "type": "event"
    },
    {
      "anonymous": false,
      "inputs": [
        {
          "indexed": true,
          "internalType": "address",
          "name": "user",
          "type": "address"
        },
        {
          "indexed": true,
          "internalType": "uint256",
          "name": "amount",
          "type": "uint256"
        }
      ],
      "name": "Deposit",
      "type": "event"
    },
    {
      "anonymous": false,
      "inputs": [],
      "name": "EIP712DomainChanged",
      "type": "event"
    },
    {
      "anonymous": false,
      "inputs": [
        {
          "indexed": true,
          "internalType": "bytes32",
          "name": "role",
          "type": "bytes32"
        },
        {
          "indexed": true,
          "internalType": "bytes32",
          "name": "previousAdminRole",
          "type": "bytes32"
        },
        {
          "indexed": true,
          "internalType": "bytes32",
          "name": "newAdminRole",
          "type": "bytes32"
        }
      ],
      "name": "RoleAdminChanged",
      "type": "event"
    },
    {
      "anonymous": false,
      "inputs": [
        {
          "indexed": true,
          "internalType": "bytes32",
          "name": "role",
          "type": "bytes32"
        },
        {
          "indexed": true,
          "internalType": "address",
          "name": "account",
          "type": "address"
        },
        {
          "indexed": true,
          "internalType": "address",
          "name": "sender",
          "type": "address"
        }
      ],
      "name": "RoleGranted",
      "type": "event"
    },
    {
      "anonymous": false,
      "inputs": [
        {
          "indexed": true,
          "internalType": "bytes32",
          "name": "role",
          "type": "bytes32"
        },
        {
          "indexed": true,
          "internalType": "address",
          "name": "account",
          "type": "address"
        },
        {
          "indexed": true,
          "internalType": "address",
          "name": "sender",
          "type": "address"
        }
      ],
      "name": "RoleRevoked",
      "type": "event"
    },
    {
      "anonymous": false,
      "inputs": [
        {
          "indexed": true,
          "internalType": "address",
          "name": "user",
          "type": "address"
        },
        {
          "indexed": true,
          "internalType": "uint256",
          "name": "amount",
          "type": "uint256"
        },
        {
          "indexed": true,
          "internalType": "uint256",
          "name": "tax",
          "type": "uint256"
        }
      ],
      "name": "Withdrawal",
      "type": "event"
    },
    {
      "inputs": [],
      "name": "DEFAULT_ADMIN_ROLE",
      "outputs": [
        {
          "internalType": "bytes32",
          "name": "",
          "type": "bytes32"
        }
      ],
      "stateMutability": "view",
      "type": "function"
    },
    {
      "inputs": [],
      "name": "NAME",
      "outputs": [
        {
          "internalType": "string",
          "name": "",
          "type": "string"
        }
      ],
      "stateMutability": "view",
      "type": "function"
    },
    {
      "inputs": [],
      "name": "OPERATOR_ROLE",
      "outputs": [
        {
          "internalType": "bytes32",
          "name": "",
          "type": "bytes32"
        }
      ],
      "stateMutability": "view",
      "type": "function"
    },
    {
      "inputs": [],
      "name": "VERSION",
      "outputs": [
        {
          "internalType": "string",
          "name": "",
          "type": "string"
        }
      ],
      "stateMutability": "view",
      "type": "function"
    },
    {
      "inputs": [],
      "name": "addFunds",
      "outputs": [],
      "stateMutability": "payable",
      "type": "function"
    },
    {
      "inputs": [
        {
          "components": [
            {
              "internalType": "address payable",
              "name": "recipient",
              "type": "address"
            },
            {
              "internalType": "uint256",
              "name": "amount",
              "type": "uint256"
            },
            {
              "internalType": "uint256",
              "name": "userNonce",
              "type": "uint256"
            }
          ],
          "internalType": "struct IRubyscore_Deposit.ClaimParams",
          "name": "claimParams",
          "type": "tuple"
        },
        {
          "internalType": "bytes",
          "name": "operatorSignature",
          "type": "bytes"
        }
      ],
      "name": "claimProfit",
      "outputs": [],
      "stateMutability": "nonpayable",
      "type": "function"
    },
    {
      "inputs": [],
      "name": "deposit",
      "outputs": [],
      "stateMutability": "payable",
      "type": "function"
    },
    {
      "inputs": [
        {
          "internalType": "address",
          "name": "recipient",
          "type": "address"
        }
      ],
      "name": "deposit",
      "outputs": [],
      "stateMutability": "payable",
      "type": "function"
    },
    {
      "inputs": [],
      "name": "eip712Domain",
      "outputs": [
        {
          "internalType": "bytes1",
          "name": "fields",
          "type": "bytes1"
        },
        {
          "internalType": "string",
          "name": "name",
          "type": "string"
        },
        {
          "internalType": "string",
          "name": "version",
          "type": "string"
        },
        {
          "internalType": "uint256",
          "name": "chainId",
          "type": "uint256"
        },
        {
          "internalType": "address",
          "name": "verifyingContract",
          "type": "address"
        },
        {
          "internalType": "bytes32",
          "name": "salt",
          "type": "bytes32"
        },
        {
          "internalType": "uint256[]",
          "name": "extensions",
          "type": "uint256[]"
        }
      ],
      "stateMutability": "view",
      "type": "function"
    },
    {
      "inputs": [
        {
          "internalType": "bytes32",
          "name": "role",
          "type": "bytes32"
        }
      ],
      "name": "getRoleAdmin",
      "outputs": [
        {
          "internalType": "bytes32",
          "name": "",
          "type": "bytes32"
        }
      ],
      "stateMutability": "view",
      "type": "function"
    },
    {
      "inputs": [
        {
          "internalType": "address",
          "name": "userAddress",
          "type": "address"
        }
      ],
      "name": "getUserDeposit",
      "outputs": [
        {
          "internalType": "uint256",
          "name": "",
          "type": "uint256"
        }
      ],
      "stateMutability": "view",
      "type": "function"
    },
    {
      "inputs": [
        {
          "internalType": "address",
          "name": "userAddress",
          "type": "address"
        }
      ],
      "name": "getUserNonce",
      "outputs": [
        {
          "internalType": "uint256",
          "name": "",
          "type": "uint256"
        }
      ],
      "stateMutability": "view",
      "type": "function"
    },
    {
      "inputs": [
        {
          "internalType": "bytes32",
          "name": "role",
          "type": "bytes32"
        },
        {
          "internalType": "address",
          "name": "account",
          "type": "address"
        }
      ],
      "name": "grantRole",
      "outputs": [],
      "stateMutability": "nonpayable",
      "type": "function"
    },
    {
      "inputs": [
        {
          "internalType": "bytes32",
          "name": "role",
          "type": "bytes32"
        },
        {
          "internalType": "address",
          "name": "account",
          "type": "address"
        }
      ],
      "name": "hasRole",
      "outputs": [
        {
          "internalType": "bool",
          "name": "",
          "type": "bool"
        }
      ],
      "stateMutability": "view",
      "type": "function"
    },
    {
      "inputs": [
        {
          "internalType": "address payable",
          "name": "to",
          "type": "address"
        },
        {
          "internalType": "uint256",
          "name": "amount",
          "type": "uint256"
        }
      ],
      "name": "removeFunds",
      "outputs": [],
      "stateMutability": "nonpayable",
      "type": "function"
    },
    {
      "inputs": [
        {
          "internalType": "bytes32",
          "name": "role",
          "type": "bytes32"
        },
        {
          "internalType": "address",
          "name": "callerConfirmation",
          "type": "address"
        }
      ],
      "name": "renounceRole",
      "outputs": [],
      "stateMutability": "nonpayable",
      "type": "function"
    },
    {
      "inputs": [
        {
          "internalType": "bytes32",
          "name": "role",
          "type": "bytes32"
        },
        {
          "internalType": "address",
          "name": "account",
          "type": "address"
        }
      ],
      "name": "revokeRole",
      "outputs": [],
      "stateMutability": "nonpayable",
      "type": "function"
    },
    {
      "inputs": [
        {
          "internalType": "bytes4",
          "name": "interfaceId",
          "type": "bytes4"
        }
      ],
      "name": "supportsInterface",
      "outputs": [
        {
          "internalType": "bool",
          "name": "",
          "type": "bool"
        }
      ],
      "stateMutability": "view",
      "type": "function"
    },
    {
      "inputs": [
        {
          "internalType": "address",
          "name": "from",
          "type": "address"
        },
        {
          "internalType": "address payable",
          "name": "to",
          "type": "address"
        },
        {
          "internalType": "uint256",
          "name": "amount",
          "type": "uint256"
        },
        {
          "internalType": "uint256",
          "name": "tax",
          "type": "uint256"
        }
      ],
      "name": "withdraw",
      "outputs": [],
      "stateMutability": "nonpayable",
      "type": "function"
    },
    {
      "inputs": [
        {
          "internalType": "address[]",
          "name": "from",
          "type": "address[]"
        },
        {
          "internalType": "address payable[]",
          "name": "to",
          "type": "address[]"
        },
        {
          "internalType": "uint256[]",
          "name": "amounts",
          "type": "uint256[]"
        },
        {
          "internalType": "uint256[]",
          "name": "taxes",
          "type": "uint256[]"
        }
      ],
      "name": "withdrawBatch",
      "outputs": [],
      "stateMutability": "nonpayable",
      "type": "function"
    }
  ],
  "transactionHash": "0x6c935c3dcd574b9fd0e60eab2d1a0d57abfd1656b7eaae841531078091b743eb",
  "args": [
    "0x0d0D5Ff3cFeF8B7B2b1cAC6B6C27Fd0846c09361",
    "0x381c031bAA5995D0Cc52386508050Ac947780815"
  ],
  "numDeployments": 1,
  "solcInputHash": "00571bd9802077305565ccb07b2f7d06",
  "bytecode": "0x6101606040523480156200001257600080fd5b5060405162001e9f38038062001e9f833981016040819052620000359162000360565b6040805180820182526011815270149d589e5cd8dbdc9957d1195c1bdcda5d607a1b60208083019190915282518084019093526005835264302e302e3160d81b90830152906200008782600062000215565b610120526200009881600162000215565b61014052815160208084019190912060e052815190820120610100524660a0526200012660e05161010051604080517f8b73c3c69bb8fe3d512ecc4cf759cc79239f7b179b0ffacaa9a75d522b39400f60208201529081019290925260608201524660808201523060a082015260009060c00160405160208183030381529060405280519060200120905090565b60805250503060c05260016003556001600160a01b038216620001855760405162461bcd60e51b81526020600482015260126024820152715a65726f206164647265737320636865636b60701b60448201526064015b60405180910390fd5b6001600160a01b038116620001d25760405162461bcd60e51b81526020600482015260126024820152715a65726f206164647265737320636865636b60701b60448201526064016200017c565b620001df6000836200024e565b506200020c7f97667070c54ef182b0f5858b034beac1b6f3089aa2d3188bb1e8929f4fa9b929826200024e565b5050506200057e565b600060208351101562000235576200022d8362000300565b905062000248565b816200024284826200043d565b5060ff90505b92915050565b60008281526002602090815260408083206001600160a01b038516845290915281205460ff16620002f75760008381526002602090815260408083206001600160a01b03861684529091529020805460ff19166001179055620002ae3390565b6001600160a01b0316826001600160a01b0316847f2f8788117e7eff1d82e926ec794901d17c78024a50270940304540a733656f0d60405160405180910390a450600162000248565b50600062000248565b600080829050601f815111156200032e578260405163305a27a960e01b81526004016200017c919062000509565b80516200033b8262000559565b179392505050565b80516001600160a01b03811681146200035b57600080fd5b919050565b600080604083850312156200037457600080fd5b6200037f8362000343565b91506200038f6020840162000343565b90509250929050565b634e487b7160e01b600052604160045260246000fd5b600181811c90821680620003c357607f821691505b602082108103620003e457634e487b7160e01b600052602260045260246000fd5b50919050565b601f8211156200043857600081815260208120601f850160051c81016020861015620004135750805b601f850160051c820191505b8181101562000434578281556001016200041f565b5050505b505050565b81516001600160401b0381111562000459576200045962000398565b62000471816200046a8454620003ae565b84620003ea565b602080601f831160018114620004a95760008415620004905750858301515b600019600386901b1c1916600185901b17855562000434565b600085815260208120601f198616915b82811015620004da57888601518255948401946001909101908401620004b9565b5085821015620004f95787850151600019600388901b60f8161c191681555b5050505050600190811b01905550565b600060208083528351808285015260005b8181101562000538578581018301518582016040015282016200051a565b506000604082860101526040601f19601f8301168501019250505092915050565b80516020808301519190811015620003e45760001960209190910360031b1b16919050565b60805160a05160c05160e0516101005161012051610140516118c6620005d96000396000610f6801526000610f36015260006110680152600061104001526000610f9b01526000610fc501526000610fef01526118c66000f3fe60806040526004361061011f5760003560e01c806391d14854116100a0578063d0e30db011610064578063d0e30db014610374578063d547741f1461037c578063f340fa011461039c578063f5b541a6146103af578063ffa1ad74146103d157600080fd5b806391d14854146102b7578063a217fddf146102d7578063a26759cb146102ec578063a3f4df7e146102f4578063c084b10b1461033e57600080fd5b80633dd744bc116100e75780633dd744bc146101f957806350d6368c146102195780636834e3a8146102395780637bfe950c1461026f57806384b0196e1461028f57600080fd5b806301ffc9a714610124578063248a9ca3146101595780632b571420146101975780632f2ff15d146101b957806336568abe146101d9575b600080fd5b34801561013057600080fd5b5061014461013f3660046113a0565b610402565b60405190151581526020015b60405180910390f35b34801561016557600080fd5b506101896101743660046113d1565b60009081526002602052604090206001015490565b604051908152602001610150565b3480156101a357600080fd5b506101b76101b2366004611448565b610439565b005b3480156101c557600080fd5b506101b76101d43660046114f9565b6106be565b3480156101e557600080fd5b506101b76101f43660046114f9565b6106e9565b34801561020557600080fd5b506101b761021436600461156e565b61071c565b34801561022557600080fd5b506101b7610234366004611632565b610938565b34801561024557600080fd5b5061018961025436600461165e565b6001600160a01b031660009081526005602052604090205490565b34801561027b57600080fd5b506101b761028a36600461167b565b6109e0565b34801561029b57600080fd5b506102a4610b46565b6040516101509796959493929190611707565b3480156102c357600080fd5b506101446102d23660046114f9565b610b8c565b3480156102e357600080fd5b50610189600081565b6101b7610bb7565b34801561030057600080fd5b5061033160405180604001604052806011815260200170149d589e5cd8dbdc9957d1195c1bdcda5d607a1b81525081565b604051610150919061179d565b34801561034a57600080fd5b5061018961035936600461165e565b6001600160a01b031660009081526004602052604090205490565b6101b7610bc5565b34801561038857600080fd5b506101b76103973660046114f9565b610c72565b6101b76103aa36600461165e565b610c97565b3480156103bb57600080fd5b5061018960008051602061189a83398151915281565b3480156103dd57600080fd5b5061033160405180604001604052806005815260200164302e302e3160d81b81525081565b60006001600160e01b03198216637965db0b60e01b148061043357506301ffc9a760e01b6001600160e01b03198316145b92915050565b610441610d66565b60008360200151116104915760405162461bcd60e51b81526020600482015260146024820152735a65726f20616d6f756e7420746f20636c61696d60601b60448201526064015b60405180910390fd5b82516001600160a01b0316600090815260056020526040908190205490840151146104f15760405162461bcd60e51b815260206004820152601060248201526f139bdb98d9481a5cc81a5b9d985b1a5960821b6044820152606401610488565b60006105737f8b351c81dc4dffd686ef891d4e3d63ac440147e1ab6ed7a39c6d33d187188d4285600001518660200151876040015160405160200161055894939291909384526001600160a01b039290921660208401526040830152606082015260800190565b60405160208183030381529060405280519060200120610d90565b90506105cc60008051602061189a8339815191526105c78386868080601f016020809104026020016040519081016040528093929190818152602001838380828437600092019190915250610dbd92505050565b610de7565b83516001600160a01b031660009081526005602052604081208054600192906105f69084906117c6565b9091555050835160208501516040516000926001600160a01b031691908381818185875af1925050503d806000811461064b576040519150601f19603f3d011682016040523d82523d6000602084013e610650565b606091505b50509050806106715760405162461bcd60e51b8152600401610488906117d9565b602085015185516040516001600160a01b03909116907fd8138f8a3f377c5259ca548e70e4c2de94f129f5a11036a15b69513cba2b426a90600090a350506106b96001600355565b505050565b6000828152600260205260409020600101546106d981610e24565b6106e38383610e2e565b50505050565b6001600160a01b03811633146107125760405163334bd91960e11b815260040160405180910390fd5b6106b98282610ec2565b60008051602061189a83398151915261073481610e24565b60005b8881101561092c5760008a8a8381811061075357610753611807565b9050602002016020810190610768919061165e565b9050600087878481811061077e5761077e611807565b905060200201359050600086868581811061079b5761079b611807565b90506020020135905060008b8b868181106107b8576107b8611807565b90506020020160208101906107cd919061165e565b6001600160a01b03851660009081526004602052604090205490915083111561082d5760405162461bcd60e51b8152602060048201526012602482015271496e73756666696369656e742066756e647360701b6044820152606401610488565b6000610839838561181d565b90506000826001600160a01b03168260405160006040518083038185875af1925050503d8060008114610888576040519150601f19603f3d011682016040523d82523d6000602084013e61088d565b606091505b50509050806108ae5760405162461bcd60e51b8152600401610488906117d9565b6001600160a01b038616600090815260046020526040812080548792906108d690849061181d565b9091555050604051849083906001600160a01b038616907fdf273cb619d95419a9cd0ec88123a0538c85064229baa6363788f743fff90deb90600090a4505050505050808061092490611830565b915050610737565b50505050505050505050565b600061094381610e24565b8147101561098a5760405162461bcd60e51b8152602060048201526014602482015273494e53554646494349454e545f42414c414e434560601b6044820152606401610488565b6040516001600160a01b038416908390600081818185875af1925050503d80600081146109d3576040519150601f19603f3d011682016040523d82523d6000602084013e6109d8565b606091505b505050505050565b60008051602061189a8339815191526109f881610e24565b6001600160a01b03851660009081526004602052604090205483811015610a565760405162461bcd60e51b8152602060048201526012602482015271496e73756666696369656e742066756e647360701b6044820152606401610488565b6000610a62848661181d565b90506000866001600160a01b03168260405160006040518083038185875af1925050503d8060008114610ab1576040519150601f19603f3d011682016040523d82523d6000602084013e610ab6565b606091505b5050905080610ad75760405162461bcd60e51b8152600401610488906117d9565b6001600160a01b03881660009081526004602052604081208054889290610aff90849061181d565b9091555050604051859083906001600160a01b038a16907fdf273cb619d95419a9cd0ec88123a0538c85064229baa6363788f743fff90deb90600090a45050505050505050565b600060608060008060006060610b5a610f2f565b610b62610f61565b60408051600080825260208201909252600f60f81b9b939a50919850469750309650945092509050565b60009182526002602090815260408084206001600160a01b0393909316845291905290205460ff1690565b6000610bc281610e24565b50565b60003411610c155760405162461bcd60e51b815260206004820152601f60248201527f56616c75652073686f756c6420657175616c2068696768657374207a65726f006044820152606401610488565b336000908152600460205260409020543490610c3182826117c6565b336000818152600460205260408082208490555192935084927fe1fffcc4923d04b559f4d29a8bfc6cda04eb5b0d3c460751c2402c5c5cc9109c9190a35050565b600082815260026020526040902060010154610c8d81610e24565b6106e38383610ec2565b610c9f610d66565b60003411610cef5760405162461bcd60e51b815260206004820152601f60248201527f56616c75652073686f756c6420657175616c2068696768657374207a65726f006044820152606401610488565b6001600160a01b0381166000908152600460205260409020543490610d1482826117c6565b6001600160a01b0384166000818152600460205260408082208490555192935084927fe1fffcc4923d04b559f4d29a8bfc6cda04eb5b0d3c460751c2402c5c5cc9109c9190a35050610bc26001600355565b600260035403610d8957604051633ee5aeb560e01b815260040160405180910390fd5b6002600355565b6000610433610d9d610f8e565b8360405161190160f01b8152600281019290925260228201526042902090565b600080600080610dcd86866110b9565b925092509250610ddd8282611106565b5090949350505050565b610df18282610b8c565b610e205760405163e2517d3f60e01b81526001600160a01b038216600482015260248101839052604401610488565b5050565b610bc28133610de7565b6000610e3a8383610b8c565b610eba5760008381526002602090815260408083206001600160a01b03861684529091529020805460ff19166001179055610e723390565b6001600160a01b0316826001600160a01b0316847f2f8788117e7eff1d82e926ec794901d17c78024a50270940304540a733656f0d60405160405180910390a4506001610433565b506000610433565b6000610ece8383610b8c565b15610eba5760008381526002602090815260408083206001600160a01b0386168085529252808320805460ff1916905551339286917ff6391f5c32d9c69d2a47ea670b442974b53935d1edc7fd64eb21e047a839171b9190a4506001610433565b6060610f5c7f000000000000000000000000000000000000000000000000000000000000000060006111bf565b905090565b6060610f5c7f000000000000000000000000000000000000000000000000000000000000000060016111bf565b6000306001600160a01b037f000000000000000000000000000000000000000000000000000000000000000016148015610fe757507f000000000000000000000000000000000000000000000000000000000000000046145b1561101157507f000000000000000000000000000000000000000000000000000000000000000090565b610f5c604080517f8b73c3c69bb8fe3d512ecc4cf759cc79239f7b179b0ffacaa9a75d522b39400f60208201527f0000000000000000000000000000000000000000000000000000000000000000918101919091527f000000000000000000000000000000000000000000000000000000000000000060608201524660808201523060a082015260009060c00160405160208183030381529060405280519060200120905090565b600080600083516041036110f35760208401516040850151606086015160001a6110e58882858561126a565b9550955095505050506110ff565b50508151600091506002905b9250925092565b600082600381111561111a5761111a611849565b03611123575050565b600182600381111561113757611137611849565b036111555760405163f645eedf60e01b815260040160405180910390fd5b600282600381111561116957611169611849565b0361118a5760405163fce698f760e01b815260048101829052602401610488565b600382600381111561119e5761119e611849565b03610e20576040516335e2f38360e21b815260048101829052602401610488565b606060ff83146111d9576111d283611339565b9050610433565b8180546111e59061185f565b80601f01602080910402602001604051908101604052809291908181526020018280546112119061185f565b801561125e5780601f106112335761010080835404028352916020019161125e565b820191906000526020600020905b81548152906001019060200180831161124157829003601f168201915b50505050509050610433565b600080807f7fffffffffffffffffffffffffffffff5d576e7357a4501ddfe92f46681b20a08411156112a5575060009150600390508261132f565b604080516000808252602082018084528a905260ff891692820192909252606081018790526080810186905260019060a0016020604051602081039080840390855afa1580156112f9573d6000803e3d6000fd5b5050604051601f1901519150506001600160a01b0381166113255750600092506001915082905061132f565b9250600091508190505b9450945094915050565b6060600061134683611378565b604080516020808252818301909252919250600091906020820181803683375050509182525060208101929092525090565b600060ff8216601f81111561043357604051632cd44ac360e21b815260040160405180910390fd5b6000602082840312156113b257600080fd5b81356001600160e01b0319811681146113ca57600080fd5b9392505050565b6000602082840312156113e357600080fd5b5035919050565b6001600160a01b0381168114610bc257600080fd5b60008083601f84011261141157600080fd5b50813567ffffffffffffffff81111561142957600080fd5b60208301915083602082850101111561144157600080fd5b9250929050565b6000806000838503608081121561145e57600080fd5b606081121561146c57600080fd5b506040516060810167ffffffffffffffff828210818311171561149f57634e487b7160e01b600052604160045260246000fd5b81604052863591506114b0826113ea565b818352602087013560208401526040870135604084015282955060608701359250808311156114de57600080fd5b50506114ec868287016113ff565b9497909650939450505050565b6000806040838503121561150c57600080fd5b82359150602083013561151e816113ea565b809150509250929050565b60008083601f84011261153b57600080fd5b50813567ffffffffffffffff81111561155357600080fd5b6020830191508360208260051b850101111561144157600080fd5b6000806000806000806000806080898b03121561158a57600080fd5b883567ffffffffffffffff808211156115a257600080fd5b6115ae8c838d01611529565b909a50985060208b01359150808211156115c757600080fd5b6115d38c838d01611529565b909850965060408b01359150808211156115ec57600080fd5b6115f88c838d01611529565b909650945060608b013591508082111561161157600080fd5b5061161e8b828c01611529565b999c989b5096995094979396929594505050565b6000806040838503121561164557600080fd5b8235611650816113ea565b946020939093013593505050565b60006020828403121561167057600080fd5b81356113ca816113ea565b6000806000806080858703121561169157600080fd5b843561169c816113ea565b935060208501356116ac816113ea565b93969395505050506040820135916060013590565b6000815180845260005b818110156116e7576020818501810151868301820152016116cb565b506000602082860101526020601f19601f83011685010191505092915050565b60ff60f81b881681526000602060e08184015261172760e084018a6116c1565b8381036040850152611739818a6116c1565b606085018990526001600160a01b038816608086015260a0850187905284810360c0860152855180825283870192509083019060005b8181101561178b5783518352928401929184019160010161176f565b50909c9b505050505050505050505050565b6020815260006113ca60208301846116c1565b634e487b7160e01b600052601160045260246000fd5b80820180821115610433576104336117b0565b6020808252601490820152732330b4b632b2103a379039b2b7321022ba3432b960611b604082015260600190565b634e487b7160e01b600052603260045260246000fd5b81810381811115610433576104336117b0565b600060018201611842576118426117b0565b5060010190565b634e487b7160e01b600052602160045260246000fd5b600181811c9082168061187357607f821691505b60208210810361189357634e487b7160e01b600052602260045260246000fd5b5091905056fe97667070c54ef182b0f5858b034beac1b6f3089aa2d3188bb1e8929f4fa9b929a164736f6c6343000815000a",
  "devdoc": {
    "errors": {
      "AccessControlBadConfirmation()": [
        {
          "details": "The caller of a function is not the expected one. NOTE: Don't confuse with {AccessControlUnauthorizedAccount}."
        }
      ],
      "AccessControlUnauthorizedAccount(address,bytes32)": [
        {
          "details": "The `account` is missing a role."
        }
      ],
      "ECDSAInvalidSignature()": [
        {
          "details": "The signature derives the `address(0)`."
        }
      ],
      "ECDSAInvalidSignatureLength(uint256)": [
        {
          "details": "The signature has an invalid length."
        }
      ],
      "ECDSAInvalidSignatureS(bytes32)": [
        {
          "details": "The signature has an S value that is in the upper half order."
        }
      ],
      "ReentrancyGuardReentrantCall()": [
        {
          "details": "Unauthorized reentrant call."
        }
      ]
    },
    "events": {
      "Claimed(address,uint256)": {
        "params": {
          "amount": "- The address that receives the profit for the referral system.",
          "recipient": "- The address that receives the profit for the referral system."
        }
      },
      "Deposit(address,uint256)": {
        "params": {
          "amount": "- Amount deposited.",
          "user": "- The user who made the deposit."
        }
      },
      "EIP712DomainChanged()": {
        "details": "MAY be emitted to signal that the domain could have changed."
      },
      "RoleAdminChanged(bytes32,bytes32,bytes32)": {
        "details": "Emitted when `newAdminRole` is set as ``role``'s admin role, replacing `previousAdminRole` `DEFAULT_ADMIN_ROLE` is the starting admin for all roles, despite {RoleAdminChanged} not being emitted signaling this."
      },
      "RoleGranted(bytes32,address,address)": {
        "details": "Emitted when `account` is granted `role`. `sender` is the account that originated the contract call. This account bears the admin role (for the granted role). Expected in cases where the role was granted using the internal {AccessControl-_grantRole}."
      },
      "RoleRevoked(bytes32,address,address)": {
        "details": "Emitted when `account` is revoked `role`. `sender` is the account that originated the contract call:   - if using `revokeRole`, it is the admin role bearer   - if using `renounceRole`, it is the role bearer (i.e. `account`)"
      },
      "Withdrawal(address,uint256,uint256)": {
        "params": {
          "amount": "- Withdrawal amount.",
          "tax": "- Withdrawal fee.",
          "user": "- User where the deposit was withdrawn."
        }
      }
    },
    "kind": "dev",
    "methods": {
      "addFunds()": {
        "details": "Can only be used by the operator role."
      },
      "claimProfit((address,uint256,uint256),bytes)": {
        "params": {
          "claimParams": "- Object with information about the output profit.",
          "operatorSignature": "- Signature message."
        }
      },
      "deposit()": {
        "details": "The ETH sent must be greater than zero."
      },
      "deposit(address)": {
        "details": "The ETH sent must be greater than zero.",
        "params": {
          "recipient": "- The address to which the deposit is to be credited."
        }
      },
      "eip712Domain()": {
        "details": "See {IERC-5267}."
      },
      "getRoleAdmin(bytes32)": {
        "details": "Returns the admin role that controls `role`. See {grantRole} and {revokeRole}. To change a role's admin, use {_setRoleAdmin}."
      },
      "getUserDeposit(address)": {
        "params": {
          "userAddress": "- Address to get deposit amount."
        },
        "returns": {
          "_0": "User deposit amount."
        }
      },
      "getUserNonce(address)": {
        "params": {
          "userAddress": "- The address of the user."
        },
        "returns": {
          "_0": "The user's nonce."
        }
      },
      "grantRole(bytes32,address)": {
        "details": "Grants `role` to `account`. If `account` had not been already granted `role`, emits a {RoleGranted} event. Requirements: - the caller must have ``role``'s admin role. May emit a {RoleGranted} event."
      },
      "hasRole(bytes32,address)": {
        "details": "Returns `true` if `account` has been granted `role`."
      },
      "removeFunds(address,uint256)": {
        "details": "Can only be used by the operator role."
      },
      "renounceRole(bytes32,address)": {
        "details": "Revokes `role` from the calling account. Roles are often managed via {grantRole} and {revokeRole}: this function's purpose is to provide a mechanism for accounts to lose their privileges if they are compromised (such as when a trusted device is misplaced). If the calling account had been revoked `role`, emits a {RoleRevoked} event. Requirements: - the caller must be `callerConfirmation`. May emit a {RoleRevoked} event."
      },
      "revokeRole(bytes32,address)": {
        "details": "Revokes `role` from `account`. If `account` had been granted `role`, emits a {RoleRevoked} event. Requirements: - the caller must have ``role``'s admin role. May emit a {RoleRevoked} event."
      },
      "supportsInterface(bytes4)": {
        "details": "See {IERC165-supportsInterface}."
      },
      "withdraw(address,address,uint256,uint256)": {
        "details": "Can only be used by the operator role.",
        "params": {
          "amount": "- Withdrawal amount.",
          "from": "- Address from which to withdraw deposit.",
          "tax": "- Withdrawal fee.",
          "to": "- Address where to send the deposit."
        }
      },
      "withdrawBatch(address[],address[],uint256[],uint256[])": {
        "details": "Can only be used by the operator role.",
        "params": {
          "amounts": "- Withdrawal amounts.",
          "from": "- Addresses from which to withdraw deposit.",
          "taxes": "- Withdrawal fees.",
          "to": "- Addresses where to send the deposits."
        }
      }
    },
    "version": 1
  },
  "userdoc": {
    "events": {
      "Claimed(address,uint256)": {
        "notice": "Emitted when a user comes for profit from the referral system."
      },
      "Deposit(address,uint256)": {
        "notice": "Emitted when a user makes a deposit."
      },
      "Withdrawal(address,uint256,uint256)": {
        "notice": "Emitted when a user withdraws a deposit."
      }
    },
    "kind": "user",
    "methods": {
      "addFunds()": {
        "notice": "Contributes free funds to the contract."
      },
      "claimProfit((address,uint256,uint256),bytes)": {
        "notice": "Withdraws the profit generated for the referral system. Only works if the notice is correct and the operator's signature is valid."
      },
      "deposit()": {
        "notice": "Accepts the user's deposit and writes it to the user's account."
      },
      "deposit(address)": {
        "notice": "Accepts the user's deposit and writes it to the user's account."
      },
      "getUserDeposit(address)": {
        "notice": "Returns the user's stored deposit."
      },
      "getUserNonce(address)": {
        "notice": "Get the user's nonce associated with their address."
      },
      "removeFunds(address,uint256)": {
        "notice": "Withdraws funds from the contract."
      },
      "withdraw(address,address,uint256,uint256)": {
        "notice": "Withdraws the deposit to the specified address, used exclusively by the operator."
      },
      "withdrawBatch(address[],address[],uint256[],uint256[])": {
        "notice": "Batch withdraws the deposits to the specified addresses, used exclusively by the operator."
      }
    },
    "version": 1
  },
  "storageLayout": {
    "storage": [
      {
        "astId": 2628,
        "contract": "contracts/Rubyscore_Deposit.sol:Rubyscore_Deposit",
        "label": "_nameFallback",
        "offset": 0,
        "slot": "0",
        "type": "t_string_storage"
      },
      {
        "astId": 2630,
        "contract": "contracts/Rubyscore_Deposit.sol:Rubyscore_Deposit",
        "label": "_versionFallback",
        "offset": 0,
        "slot": "1",
        "type": "t_string_storage"
      },
      {
        "astId": 26,
        "contract": "contracts/Rubyscore_Deposit.sol:Rubyscore_Deposit",
        "label": "_roles",
        "offset": 0,
        "slot": "2",
        "type": "t_mapping(t_bytes32,t_struct(RoleData)21_storage)"
      },
      {
        "astId": 644,
        "contract": "contracts/Rubyscore_Deposit.sol:Rubyscore_Deposit",
        "label": "_status",
        "offset": 0,
        "slot": "3",
        "type": "t_uint256"
      },
      {
        "astId": 6480,
        "contract": "contracts/Rubyscore_Deposit.sol:Rubyscore_Deposit",
        "label": "depositStorage",
        "offset": 0,
        "slot": "4",
        "type": "t_mapping(t_address,t_uint256)"
      },
      {
        "astId": 6484,
        "contract": "contracts/Rubyscore_Deposit.sol:Rubyscore_Deposit",
        "label": "userNonce",
        "offset": 0,
        "slot": "5",
        "type": "t_mapping(t_address,t_uint256)"
      }
    ],
    "types": {
      "t_address": {
        "encoding": "inplace",
        "label": "address",
        "numberOfBytes": "20"
      },
      "t_bool": {
        "encoding": "inplace",
        "label": "bool",
        "numberOfBytes": "1"
      },
      "t_bytes32": {
        "encoding": "inplace",
        "label": "bytes32",
        "numberOfBytes": "32"
      },
      "t_mapping(t_address,t_bool)": {
        "encoding": "mapping",
        "key": "t_address",
        "label": "mapping(address => bool)",
        "numberOfBytes": "32",
        "value": "t_bool"
      },
      "t_mapping(t_address,t_uint256)": {
        "encoding": "mapping",
        "key": "t_address",
        "label": "mapping(address => uint256)",
        "numberOfBytes": "32",
        "value": "t_uint256"
      },
      "t_mapping(t_bytes32,t_struct(RoleData)21_storage)": {
        "encoding": "mapping",
        "key": "t_bytes32",
        "label": "mapping(bytes32 => struct AccessControl.RoleData)",
        "numberOfBytes": "32",
        "value": "t_struct(RoleData)21_storage"
      },
      "t_string_storage": {
        "encoding": "bytes",
        "label": "string",
        "numberOfBytes": "32"
      },
      "t_struct(RoleData)21_storage": {
        "encoding": "inplace",
        "label": "struct AccessControl.RoleData",
        "members": [
          {
            "astId": 18,
            "contract": "contracts/Rubyscore_Deposit.sol:Rubyscore_Deposit",
            "label": "hasRole",
            "offset": 0,
            "slot": "0",
            "type": "t_mapping(t_address,t_bool)"
          },
          {
            "astId": 20,
            "contract": "contracts/Rubyscore_Deposit.sol:Rubyscore_Deposit",
            "label": "adminRole",
            "offset": 0,
            "slot": "1",
            "type": "t_bytes32"
          }
        ],
        "numberOfBytes": "64"
      },
      "t_uint256": {
        "encoding": "inplace",
        "label": "uint256",
        "numberOfBytes": "32"
      }
    }
  }
}